:020000040800F2
:10000000C806002061020008151600080D16000839
:1000100011160008690300089D1700080000000081
:100020000000000000000000000000001D16000895
:100030006D030008000000001916000821160008D2
:100040007B0200087B0200087B0200087B0200089C
:100050007B0200087B0200087B0200087B0200088C
:100060007B0200087B0200087B0200087B0200087C
:100070007B0200087B0200087B0200087B0200086C
:100080007B0200087B0200087B0200087B0200085C
:100090007B0200087B0200087B0200087103000855
:1000A0007B0200087B0200087B0200087B0200083C
:1000B000391600087B0200087B0200087B0200085A
:1000C0007B0200087B0200087B0200087B0200081C
:1000D0007B0200087B0200087B0200087B0200080C
:1000E0007B0200087B0200087B0200087B020008FC
:1000F0007B0200087B0200087B0200087B020008EC
:100100007B02000800000000000000007B020008E5
:100110007B0200087B0200087B0200087B020008CB
:100120007B0200087B0200087B0200087B020008BB
:100130007B0200087B0200080000000000000000B5
:100140007B0200087B0200087B0200080000000020
:10015000000000000000000000000000000000009F
:100160007B0200087B0200087B0200087B0200087B
:100170007B0200087B0200087B0200087B0200086B
:100180007B0200087B020008000000000000000065
:100190007B02000800F002F800F052F814A696E87E
:1001A000000CB244B344DA4501D100F049F8BAE892
:1001B0000F000FA696E83000A5EB040504EB060738
:1001C000AAEB0704A7F101074FEA15154FEA34140B
:1001D000A4F10104AC4201D300F032F813F0010F96
:1001E00018BFFB1A43F0010300F001F8DBE71847E2
:1001F0001419000034190000103A24BF78C878C1DF
:10020000FAD8520724BF30C830C144BF04680C601C
:1002100070470000704700000023002400250026DE
:10022000103A28BF78C1FBD8520728BF30C148BF59
:100230000B6070471FB501F040FC1FBD10B510BD2D
:1002400000F058F81146FFF7F5FF01F0A9FA00F0A9
:1002500076F803B4FFF7F2FF03BC00F07DF800006E
:100260000948804709480047FEE7FEE7FEE7FEE74A
:10027000FEE7FEE7FEE7FEE7FEE7FEE70448054986
:10028000054A064B70470000251600089501000836
:10029000C8000020C8060020C8020020C8020020B4
:1002A0004FF0000200B5134694469646203922BF0F
:1002B000A0E80C50A0E80C50B1F12001BFF4F7AF5A
:1002C000090728BFA0E80C5048BF0CC05DF804EB3C
:1002D000890028BF40F8042B08BF704748BF20F8AA
:1002E000022B11F0804F18BF00F8012B70477047A8
:1002F00070477047754600F02BF8AE46050069461A
:10030000534620F00700854618B020B5FFF7B6FF2A
:10031000BDE820404FF000064FF000074FF0000806
:100320004FF0000BAC46ACE8C009ACE8C009ACE843
:10033000C009ACE8C00921F007018D46704710B52F
:100340000446AFF300802046BDE81040FFF781BFB0
:10035000004870471000002001491820ABBEFEE79E
:100360002600020070470000FEE700007047000012
:100370004FF4807000F020B8B0B5044600F010F9DA
:10038000054640F20000C2F200000078611C18BF70
:10039000044400BF00F004F9401BA042FAD3B0BDF2
:1003A000B0F5807F18BF704740F27000C2F20000C5
:1003B000012101707047000040F21441C4F20101B4
:1003C0000A68024214BF08607047FFF7E9BF0000E7
:1003D0002DE9F04F83B00E68002E00F0CF8000F1C1
:1003E000200241F6000C009200F13847C4F6000CE0
:1003F00007224FEAB725604508BF0622062D38BF01
:100400004FEAB722002500274FF0000801920AE0CA
:100410000E6808F1010836FA08F207F1020705F143
:10042000040500F0AB80012202FA08FE16EA0E096C
:10043000EED0D1F804C003220CF0030BABF101069F
:1004400002FA07F4012E6FEA040A11D88468CE6814
:1004500004EA0A04BE4034438460446824EA0E0679
:10046000CCF3001404FA08F42643466006E000BF0B
:10047000BBF1030F02D14FF0030B21E0C6688C687B
:1004800006EA0A06BC402643BBF1020FC66017D13C
:100490006FF00302009B02EA580605F01C020F24CD
:1004A00053F806C004FA02FE0C692CEA0E0C04FA9A
:1004B00002F242EA0C029A51D1F804C00CF0030B8C
:1004C00002680BFA07F302EA0A021A431CF4403FDF
:1004D00002609DD041F21803C4F202031A6840F290
:1004E000004E42F001021A601A68C4F2010E02F0D6
:1004F00001020292029A28F003024FF6084C72445D
:10050000CFF6FF7C52F80C3005F00C060F24B440F7
:10051000A343019C04FA06F6334342F80C30DEF89C
:1005200008204B6842EA090640F20C4CDC0258BF36
:1005300022EA0906CEF80860C4F2010CDCF80020BB
:100540009C0242EA090658BF22EA0906CCF800607C
:10055000DEF804209C0342EA090658BF22EA090695
:10056000CEF80460DEF80020DB0342EA090658BF3B
:1005700022EA0906CEF800604AE700BF03B0BDE8F2
:10058000F08F0000426902EA0103914341EA03410E
:10059000816170471823002A08BF2823C150704783
:1005A00040F2C000C2F200000068704740F2000054
:1005B00040F2C001C2F20000C2F2000100780A68F5
:1005C000104408607047000080B542F20000C4F299
:1005D0000200016841F010010160032000F084F87E
:1005E0000F2000F005F800F027F8002080BD000083
:1005F00070B540F20006C2F2000640F208013278FF
:10060000C2F200014FF47A730968B3FBF2F20446B8
:10061000B1FBF2F1084600F073FC0F2C4FF001051E
:1006200008D838B94FF0FF3021460022002500F0ED
:100630002FF87460284670BD82B041F21800C4F2F1
:100640000200016841F001010160016801F001014F
:1006500001910199416841F080514160406800F08A
:1006600080500090009802B070470000002848BFFA
:10067000704700F01F01012202FA01F11C2202EA78
:10068000D0004EF20012CEF20002815070470000FE
:1006900010B54EF60C5CCEF2000CDCF80030C3F363
:1006A000022E8EF00704042C28BF0424BEF103039D
:1006B0004FF0FF3E0EFA04F438BF0023A1439940E7
:1006C0000EFA03F39A43114300F00F0200F1604366
:1006D0000901043A03F564436244002848BF02F16B
:1006E0000C03197010BD00004EF60C51CEF2000143
:1006F0000A684FF6FF031A4060F30A2242F0806056
:1007000040F0FD70086070472DE9F04182B004466A
:10071000807841F23006C007C4F2020656D056F87F
:10072000140C5FEAC0080BD456F8140C40F080504B
:1007300046F8140C56F8140C00F080500190019803
:1007400047F20007C4F200073868C00512D43868C1
:1007500040F480703860FFF723FF05463868C00515
:1007600008D4FFF71DFF401B6428F7D9032002B00F
:10077000BDE8F08156F8100C10F4407015D0616897
:1007800001F44071884210D056F8100C40F24042FB
:10079000C4F24222012320F4407113600023C007F9
:1007A000136046F8101C40F0F98056F8100C616890
:1007B00020F440700843B8F1000F46F8100C05D43F
:1007C00056F8140C20F0805046F8140C2068C1072D
:1007D00038D181073ED4410744D481064AD48103ED
:1007E00050D4410658D441035ED4010764D4C106F5
:1007F0006AD4810570D4010679D4C10500F18280E4
:10080000C10400F18A80810400F19080C10200F1EE
:100810009680810200F19C80410200F1A2800102D9
:1008200000F1A880C10100F1AE80800105D53068DB
:10083000216D20F4004008433060002002B0BDE884
:10084000F08100BF3168A26821F0030111433160DB
:100850008107C0D53168E26821F44031114331602D
:100860004107BAD53168226921F440211143316032
:100870008106B4D53168E26921F01001114331607D
:100880008103AED556F82C1C626D21F48001114312
:1008900046F82C1C4106A6D53168226A21F02001B9
:1008A000114331604103A0D53168626A21F04001F3
:1008B0001143316001079AD53168626921F4401112
:1008C00011433160C10694D53168A26921F4400119
:1008D0001143316081058ED556F82C1C226B21F412
:1008E0000001114346F82C1C01067FF586AF56F82F
:1008F000041CA26A21F4F871114346F8041CC105D6
:100900007FF57EAF56F8041CE26A21F4785111435A
:1009100046F8041CC1047FF576AF3168626B21F4A0
:1009200080711143316081047FF570AF3168226CB2
:1009300021F4007111433160C1027FF56AAF316863
:10094000A26B21F080711143316081027FF564AFA9
:100950003168E26B21F000711143316041027FF593
:100960005EAF3168626C21F4806111433160010235
:100970007FF558AF3168A26C21F4006111433160FA
:10098000C1017FF552AF3168E26C21F4005111438F
:10099000316080013FF54BAF4FE700BFFFF700FE2E
:1009A000054641F2883700BF56F8100C80073FF526
:1009B000FCAEFFF7F5FD401BB8424FF00300F3D942
:1009C0003CE70000002804BF012070472DE9F043F8
:1009D00081B042F20008C4F202080446D8F80000D0
:1009E0000D4600F0070081420CD9D8F8000020F035
:1009F00007002843C8F80000D8F8000000F00700FE
:100A0000A8427AD1206841F204098107C4F20209A0
:100A100007D5D9F80010A26821F0F0011143C9F8F8
:100A20000010C00760D1D8F8000000F00700854230
:100A30000CD2D8F8000020F007002843C8F80000C6
:100A4000D8F8000000F00700A84256D120684107FE
:100A500007D5D9F80010E26821F4E0611143C9F824
:100A60000010000708D5D9F80000216920F4605073
:100A700040EAC100C9F80000D9F8001001F00C00EC
:100A8000082841F20020C0F27A0012D141F6E42297
:100A9000C1F38341C0F60002515CD9F8282041F629
:100AA000F42302F00F02C0F600039A5CB0FBF2F0F0
:100AB0004843D9F8001041F6D422C1F30311C0F61F
:100AC0000002515C40F2080220FA01F140F20400F9
:100AD000C2F200000068C2F200021160FFF788FD58
:100AE000002001B0BDE8F083606859F8041C0228BA
:100AF00008D0012826D1890306D4012001B0BDE821
:100B0000F08300BF8901F8D5D9F8001021F0030166
:100B10000843C9F80000FFF743FD064641F2883755
:100B2000D9F80000616800F00C00B0EB810F3FF4D1
:100B30007AAFFFF735FD801BB842F1D9032001B031
:100B4000BDE8F0838907D8D5DEE70000002804BFA0
:100B5000012070472DE9F04182B00446007841F24F
:100B60000006C007C4F202060CD0706800F00C004A
:100B7000042840F083803068800303D56068002833
:100B800000F02281207880071ED5706810F00C0FCD
:100B90000CD0706800F00C00082840F08B80706862
:100BA00000F4C030B0F5004F40F08480306880071A
:100BB00003D5E068012840F007813068216920F002
:100BC000F80040EAC10030602078000714D4207893
:100BD00040072BD4A569002D00F0F180706800F06B
:100BE0000C00082840F0A480012D40F0D78001209F
:100BF00002B0BDE8F08100BF6069002800F080808D
:100C00000020C4F242200121C0F88014FFF7C8FC84
:100C1000054600BF706A8007D9D4FFF7C1FC401BAE
:100C20000228F7D9032002B0BDE8F081F0695FEA3D
:100C3000C00808D4F06940F08050F061F06900F01D
:100C400080500190019847F20007C4F2000738680D
:100C5000C00549D4386840F480703860FFF7A0FCC4
:100C6000054600BF3868C0053ED4FFF799FC401B1D
:100C70006428F7D9032002B0BDE8F081706800F065
:100C80000C00082806D1706800F4C030B0F5803F31
:100C90003FF471AF61683068002900F0E380B1F57E
:100CA000A02F00F0D780B1F5803F40F0F18040F4F4
:100CB0008030F3E0E068002840F20000C4F24220F7
:100CC0005AD001210160FFF76BFC054630688007B0
:100CD0003FF573AFFFF764FC401B0228F6D90320F1
:100CE00002B0BDE8F08100BFA168306A002977D06A
:100CF00005296DD0012940F08B8040F001008DE086
:100D00000020C4F242200021C0F88014FFF748FC04
:100D1000054600BF706A80077FF559AFFFF740FCBA
:100D2000401B0228F6D9032002B0BDE8F08100BFC5
:100D30000027C4F2422700203866FFF731FC022D5D
:100D400005460DD13068800140F1BA80FFF728FCDC
:100D5000401B02284FF00300F4D902B0BDE8F08137
:100D6000306880012BD5FFF71BFC401B02284FF099
:100D70000300F5D9F1E700BF00210160FFF710FC87
:100D8000054600BF306880077FF51EAFFFF708FCFF
:100D9000401B02284FF00300F4D9DEE77168F06AC7
:100DA000E26901F4C03393420ED1226A01F470115A
:100DB000914209D1616A00F00F00884204D10020FD
:100DC00002B0BDE8F08100BF012002B0BDE8F081B3
:100DD00040F004003062306A40F001001EE000BFC5
:100DE00020F001003062306A20F004003062FFF72A
:100DF000D7FB054641F28837306A800720D5FFF7D8
:100E0000CFFB401BB8424FF00300F5D9A5E700BF68
:100E100020F001003062306A20F004003062FFF7F9
:100E2000BFFB054641F28837306A800708D4FFF7D8
:100E3000B7FB401BB842F7D9032002B0BDE8F081F0
:100E4000B8F1000F3FF5C6AEF06920F08050F061B8
:100E5000C0E600BF40F480203060306840F480304D
:100E60001CE000BF20F480303060306820F4802027
:100E70003060FFF795FB0546306880037FF582AE52
:100E8000FFF78EFB401B64284FF00300F4D964E7A2
:100E900020F480303060306820F480203060FFF72C
:100EA0007FFB0546306880033FF56CAEFFF778FBAB
:100EB000401B6428F6D9032002B0BDE8F08100BFD2
:100EC000F06A626A20F00F001043D4E90713F06261
:100ED000706820F47610184308437060012038666B
:100EE000FFF75EFB044600BF306880013FF567AF47
:100EF000FFF756FB001B02284FF00300F4D92CE744
:100F0000411E0020B0EB116F1CBF012070474EF254
:100F10001002CEF2000251604EF62351CEF20001D3
:100F2000F0230B700721906011607047704700003C
:100F3000704700007047000090F83C20012A4FF0F5
:100F4000020258D0B0B580F83D20026842F6004C4D
:100F500054689368C4F2010C45F2000E6245C4F275
:100F6000010E18BF724529D14D6824F470042C433A
:100F70000D6824F070042C4342F6FF35C4F20105DD
:100F8000AA4254600ADD43F6FF74C4F20104A2428F
:100F90001CDC624522D043F200451BE0B2F1804FD9
:100FA0001CD040F20045C4F20005AA4216D040F61B
:100FB0000005C4F20005AA4210D014E043F2004537
:100FC000C4F20105AA42CFD0D2E700BF724505D0D6
:100FD00044F20005C4F20105AA4204D1896823F055
:100FE0008003194391600121002280F83D1080F8B0
:100FF0003C20BDE8B040104670470000002804BF08
:101000000120704710B5044690F83D0028B9002033
:1010100084F83C00204600F023F8022084F83D00CC
:101020002068211D00F00EFB012084F8480084F8A0
:101030003E0084F83F0084F8400084F8410084F8C2
:10104000420084F8430084F8440084F8450084F8A2
:10105000460084F8470084F83D00002010BD0000E1
:1010600080B586B000680021B0F1804F0591CDE9D0
:1010700003110291019101D006B080BD41F214002C
:10108000C4F20200826842F001028260826802F0CB
:1010900001020092009A026842F400320260006885
:1010A000022200F400300090009801200190CDE968
:1010B0000221CDE9041001A94FF09040FFF788F913
:1010C0001C2000210022FFF7E3FA1C20FFF7CEFAD4
:1010D00006B080BD90F83C20012A4FF002026CD08F
:1010E00080B580F83D20D0F800C08822DCF80830B8
:1010F000CFF6FE721A40CCF808200B684F2B29DC83
:101100001F2B45DD202B46D0302B44D0402B40F008
:10111000AF80D1F804E0C968DCF82030DCF820208A
:1011200022F00102CCF82020DCF8182022F0F00296
:1011300042EA011123F00A0242EA0E02CCF818102A
:10114000CCF82020DCF8081041F0470121F03001F4
:1011500028E000BF6F2B33DDB3F5005F74D0B3F52B
:10116000805F21D0702B40F08380D1E901E3C96812
:10117000DCF8082043EA0E0322F47F4243EA01210F
:101180001143CCF80810DCF8081041F0770109E0B1
:101190000BB1102B6CD1DCF8081021F07001194351
:1011A00041F00701CCF808100022012180F83D1021
:1011B000002180F83C10BDE880401046704700BF19
:1011C000502B21D0602B53D1D1F804E0C968DCF852
:1011D0002030DCF8202022F01002CCF82020DCF8AF
:1011E000182022F4704242EA013123F0A00242EAC0
:1011F0000E12CCF81810CCF82020DCF8081041F0C2
:10120000670121F01001CDE7D1F804E0C968DCF8EE
:101210002030DCF8202022F00102CCF82020DCF87D
:10122000182022F0F00242EA011123F00A0242EAF9
:101230000E02CCF81810CCF82020DCF8081041F091
:10124000570121F02001ADE7D1E901E3C968DCF8DD
:10125000082043EA0E0322F47F4243EA01211143AE
:10126000CCF80810DCF8081041F480419AE700BF80
:1012700001229AE77047000090F83C30012B04BF30
:10128000022070474FEAB202032A00F28D80F0B5C7
:10129000DFE802F0026426460368D1E900C5D1F810
:1012A0000CE01C6A1A6A42F6FF3722F001021A6249
:1012B0001A4652F8186FC4F20107BB427ADD43F6B2
:1012C000FF77C4F20107BB4200F3828042F6004779
:1012D000C4F20107BB4200F0878043F200477FE081
:1012E0000768D1E900C5D1E902313C6A3A6A61F385
:1012F000071522F480723A623A4652F81C6F26F0C3
:10130000F30645EA060124F420660CF00A0546EAD5
:10131000052611603E62116821F00C01116074E035
:101320000368D1E900E6D1E902C11C6A1A6A3602F3
:1013300022F480521A621A4652F81C5F4FF2FF07DD
:10134000BE4325F4734561F30F3624F420440EF0B8
:101350000A0746EA050144EA07371CE00368D1E9B9
:1013600000E6D1E902C11C6A1A6A360222F01002B4
:101370001A621A4652F8185F4FF2FF07BE4325F46F
:10138000734561F30F3624F0A0040EF00A0746EA15
:10139000050144EA071711601F6211684FEA0C2328
:1013A00021F44061116030E00121002280F83C20EE
:1013B00008467047B3F1804F16D040F20047C4F2A0
:1013C0000007BB4210D040F60007C4F2000709E056
:1013D00045F20007C4F20107BB4205D044F2000702
:1013E000C4F20107BB421BD126F00306354324F0AB
:1013F0000A070CF00A066EF3071537449D611F6259
:101400009F6927F00C079F618B6811681943116071
:101410000021BDE8F040002280F83C2008467047DB
:1014200046F00105E3E70000002804BF01207047F3
:1014300010B5044690F83D0028B9002084F83C001F
:10144000204600F023F8022084F83D002068211D8A
:1014500000F0F8F8012084F8480084F83E0084F891
:101460003F0084F8400084F8410084F8420084F88A
:10147000430084F8440084F8450084F8460084F86A
:10148000470084F83D00002010BD000070470000B8
:10149000F0B581B004460068C5680669B10717D584
:1014A00015F0020114D06FF00201016101212177D2
:1014B0008069800704D02046FFF7DCFE06E000BF0D
:1014C000204600F09BF8204600F09AF80020207794
:1014D000700719D515F0040016D020686FF00401CC
:1014E000016102212177806910F4407F04D02046F9
:1014F000FFF7C0FE06E000BF204600F07FF8204660
:1015000000F07EF800202077300717D515F008008E
:1015100014D020686FF00801016104212177C069AF
:10152000800703D02046FFF7A5FE05E0204600F027
:1015300065F8204600F064F800202077F00619D501
:1015400015F0100016D020686FF01001016108211D
:101550002177C06910F4407F04D02046FFF78AFE4F
:1015600006E000BF204600F049F8204600F048F8A9
:1015700000202077F00718BF15F0010004D13006D5
:1015800005F080070BD412E020686FF001010161C3
:10159000204600F037F8300605F0800707D537B150
:1015A00020686FF0800101612046FFF7C1FCF00563
:1015B00007D537B120686FF4807101612046FFF7CD
:1015C000B5FC700609D515F0400006D020686FF014
:1015D00040010161204600F017F8B0060CD515F067
:1015E000200009D021686FF0200220460A6101B076
:1015F000BDE8F040FFF79EBC01B0F0BD70470000B1
:10160000704700007047000070470000FEE70000D0
:10161000FEE70000FEE70000704700007047000092
:10162000FEF7C4BF4EF68850CEF20000016841F4C8
:10163000700101607047000040F27400C2F20000C7
:10164000FFF726BF42F6FF330268C4F20103984257
:101650002EDCB0F1804F3DD040F20043C4F20003D5
:10166000984237D040F60003C4F20003984231D0CC
:1016700043F2FF33C4F20103984235DD44F2FF33F5
:10168000C4F2010398424DDD44F20043C4F2010369
:10169000984253D045F20003C4F2010398424DD062
:1016A00044F60003C4F20103984247D04AE000BF69
:1016B00042F60043C4F2010398420BD045F2000306
:1016C000C4F20103984205D043F20043C4F201037F
:1016D0009842CDD14B6822F070021A4343F2FF3397
:1016E000C4F201039842C9DC40F2FF73C4F2000364
:1016F000984209DCB0F1804F20D040F20043C4F2A0
:10170000000398421AD01DE040F60003C4F2000323
:10171000984213D042F60043C4F2010398420DD020
:1017200010E000BF43F20043C4F20103984205D029
:1017300044F20003C4F20103984203D1CB6822F4BF
:1017400040721A4380B54B6922F0800E8A6843EAE2
:101750000E03D1F800C00360C262A0F18042A2F57E
:1017600096324FEAB222092AC0F828C0BDE880406C
:1017700008D8012303FA02F240F2E5231A421CBF03
:1017800009690163012141610169C90708BF704707
:10179000016921F00101016170470000FEE70000CE
:1017A000A6B0FEF711FF1CAC201D2421FEF778FD2A
:1017B00001A804305421FEF773FD02201C90012083
:1017C0001F9010202090002520462295FFF7BEF99B
:1017D00020B1EFF3108072B6FEE700BF0F20CDE915
:1017E000170517A80021CDE919551B95FFF7EAF851
:1017F00020B1EFF3108072B6FEE700BF4FF4801007
:101800000190002701A80F97FEF77EFF20B1EFF3AC
:10181000108072B6FEE700BF41F214000597CDE9D3
:101820000377CDE90177C4F20200016840F2004875
:1018300041F4003101600168002201F400311C9183
:101840001C990168C4F6000841F480210160006819
:1018500040F2124100F480201C901C984FF0904000
:1018600040F21245FEF796FE404628210022282627
:10187000FEF790FE019501AD01244FF090402946FE
:10188000CDE902470497FEF7A3FD4FF48070019065
:101890004FF488100290022003904FF090402946A8
:1018A000FEF796FD40462946CDE90164CDE9037770
:1018B000FEF78EFD172000210022FEF7E9FE17201B
:1018C000FEF7D4FE40F27006C2F200064FF08041EF
:1018D000304640F8041F41F63F7140F2E73204976A
:1018E000CDE902771897C0E90117C0E9032787619E
:1018F000FFF784FB20B1EFF3108072B6FEE700BF64
:101900004FF48050351D019001A92846FFF7E2FBF6
:1019100020B1EFF3108072B6FEE700BF2846FFF754
:1019200083FD28B1EFF3108072B600BFFEE700BF61
:10193000002717A9284617971997FFF7FDFA28B12E
:10194000EFF3108072B600BFFEE700BF0120CDE9C3
:101950001D071CA9284600221C971F97FFF78CFC27
:1019600020B1EFF3108072B6FEE700BF4FF0904059
:10197000022100220025FEF70DFE4FF090401021BD
:101980000022FEF707FE4FF090404FF480610122E5
:10199000FEF700FE404608210122FEF7FBFD40460F
:1019A00020210022FEF7F6FD30780028FCD000F060
:1019B00003F83570F8E7000010B54FF090404FF491
:1019C00080610022FEF7E6FD4FF0904010210122D9
:1019D000FEF7E0FD4FF4FA60FEF7CEFC4FF09040CA
:1019E00010210022FEF7D6FD4FF090400221012287
:1019F000FEF7D0FD40F20044C4F600042046082162
:101A00000022FEF7C7FD204620210122FEF7C2FD7D
:101A100041F28830FEF7B0FC20462021FEF7B2FDEF
:101A20004FF4FA70FEF7A8FC20462021FEF7AAFD2D
:101A30004FF4FA70FEF7A0FC20462021FEF7A2FD2D
:101A40004FF4FA70FEF798FC20462021FEF79AFD2D
:101A50004FF4FA70FEF790FC20462021FEF792FD2D
:101A60004FF4FA70FEF788FC204620210022FEF792
:101A700091FD204608210122FEF78CFD4FF0904099
:101A800002210022FEF786FD4FF090401021012236
:101A9000FEF780FD4FF4FA60FEF76EFC4FF09040C9
:101AA00010210022FEF776FD4FF090404FF4806148
:101AB0000122BDE81040FEF76DBDF1EE100A4FF6B1
:101AC000FF71C0F2C03120EA010040F04070E1EE49
:101AD000100A70470000000000000000010203042B
:101AE0000607080902030405060708090A0B0C0D7E
:101AF0000E0F10100102030405060708090A0B0C5B
:101B00000D0E0F10281B0008000000201000000020
:101B1000F8010008381B000810000020B80600007B
:101B20001802000800000000010000001000000082
:081B300000127A000000000021
:040000050800019559
:00000001FF
